{
  "contractName": "Doctor",
  "abi": [
    {
      "constant": true,
      "inputs": [],
      "name": "getDoctorInfo",
      "outputs": [
        {
          "internalType": "string",
          "name": "",
          "type": "string"
        },
        {
          "internalType": "address",
          "name": "",
          "type": "address"
        },
        {
          "internalType": "address[]",
          "name": "",
          "type": "address[]"
        }
      ],
      "payable": false,
      "stateMutability": "view",
      "type": "function"
    },
    {
      "constant": false,
      "inputs": [
        {
          "internalType": "string",
          "name": "_name",
          "type": "string"
        }
      ],
      "name": "signupDoctor",
      "outputs": [],
      "payable": false,
      "stateMutability": "nonpayable",
      "type": "function"
    }
  ],
  "bytecode": "0x608060405234801561001057600080fd5b506107a9806100206000396000f3fe608060405234801561001057600080fd5b50600436106100365760003560e01c80636459d52f1461003b578063b380f5c6146100f6575b600080fd5b6100f46004803603602081101561005157600080fd5b810190808035906020019064010000000081111561006e57600080fd5b82018360208201111561008057600080fd5b803590602001918460018302840111640100000000831117156100a257600080fd5b91908080601f016020809104026020016040519081016040528093929190818152602001838380828437600081840152601f19601f8201169050808301925050505050505091929192905050506101f4565b005b6100fe6103bb565b60405180806020018473ffffffffffffffffffffffffffffffffffffffff1673ffffffffffffffffffffffffffffffffffffffff16815260200180602001838103835286818151815260200191508051906020019080838360005b83811015610174578082015181840152602081019050610159565b50505050905090810190601f1680156101a15780820380516001836020036101000a031916815260200191505b50838103825284818151815260200191508051906020019060200280838360005b838110156101dd5780820151818401526020810190506101c2565b505050509050019550505050505060405180910390f35b60008060003373ffffffffffffffffffffffffffffffffffffffff1673ffffffffffffffffffffffffffffffffffffffff1681526020019081526020016000209050600073ffffffffffffffffffffffffffffffffffffffff168160010160009054906101000a900473ffffffffffffffffffffffffffffffffffffffff1673ffffffffffffffffffffffffffffffffffffffff16111561029457600080fd5b60405180606001604052808381526020013373ffffffffffffffffffffffffffffffffffffffff16815260200160006040519080825280602002602001820160405280156102f15781602001602082028038833980820191505090505b508152506000803373ffffffffffffffffffffffffffffffffffffffff1673ffffffffffffffffffffffffffffffffffffffff168152602001908152602001600020600082015181600001908051906020019061034f929190610602565b5060208201518160010160006101000a81548173ffffffffffffffffffffffffffffffffffffffff021916908373ffffffffffffffffffffffffffffffffffffffff16021790555060408201518160020190805190602001906103b3929190610682565b509050505050565b6060600060603360008060008373ffffffffffffffffffffffffffffffffffffffff1673ffffffffffffffffffffffffffffffffffffffff1681526020019081526020016000209050600073ffffffffffffffffffffffffffffffffffffffff168160010160009054906101000a900473ffffffffffffffffffffffffffffffffffffffff1673ffffffffffffffffffffffffffffffffffffffff161161046157600080fd5b60008060003373ffffffffffffffffffffffffffffffffffffffff1673ffffffffffffffffffffffffffffffffffffffff1681526020019081526020016000209050806000018160010160009054906101000a900473ffffffffffffffffffffffffffffffffffffffff1682600201828054600181600116156101000203166002900480601f0160208091040260200160405190810160405280929190818152602001828054600181600116156101000203166002900480156105655780601f1061053a57610100808354040283529160200191610565565b820191906000526020600020905b81548152906001019060200180831161054857829003601f168201915b50505050509250808054806020026020016040519081016040528092919081815260200182805480156105ed57602002820191906000526020600020905b8160009054906101000a900473ffffffffffffffffffffffffffffffffffffffff1673ffffffffffffffffffffffffffffffffffffffff16815260200190600101908083116105a3575b50505050509050955095509550505050909192565b828054600181600116156101000203166002900490600052602060002090601f016020900481019282601f1061064357805160ff1916838001178555610671565b82800160010185558215610671579182015b82811115610670578251825591602001919060010190610655565b5b50905061067e919061070c565b5090565b8280548282559060005260206000209081019282156106fb579160200282015b828111156106fa5782518260006101000a81548173ffffffffffffffffffffffffffffffffffffffff021916908373ffffffffffffffffffffffffffffffffffffffff160217905550916020019190600101906106a2565b5b5090506107089190610731565b5090565b61072e91905b8082111561072a576000816000905550600101610712565b5090565b90565b61077191905b8082111561076d57600081816101000a81549073ffffffffffffffffffffffffffffffffffffffff021916905550600101610737565b5090565b9056fea265627a7a72315820cbef164c5d75580ebf789610a596bbdb5161b3d76dee6b85b29b47a707fa734464736f6c63430005100032",
  "source": "pragma solidity ^0.5.16;\r\n\r\ncontract Doctor {\r\n    mapping (address => doctor) internal doctors;\r\n    mapping (address => mapping(address => uint)) internal doctorToPatient;\r\n    \r\n    struct doctor {\r\n        string name;\r\n        address id;\r\n        address[] patient_list;\r\n    }\r\n    \r\n    modifier checkDoctor(address id) {\r\n        doctor storage d = doctors[id];\r\n        require(d.id > address(0x0));//check if doctor exist\r\n        _;\r\n    }\r\n    \r\n    function getDoctorInfo() public view checkDoctor(msg.sender) returns(string memory,address, address[] memory){\r\n        doctor storage  d = doctors[msg.sender];\r\n        return (d.name,d.id, d.patient_list);\r\n    }\r\n    \r\n    function signupDoctor(string memory _name) public {\r\n        doctor storage d = doctors[msg.sender];\r\n        require(!(d.id > address(0x0)));\r\n\r\n        doctors[msg.sender] = doctor({name:_name,id:msg.sender,patient_list:new address[](0)});\r\n    }    \r\n    \r\n}",
  "sourcePath": "C:\\Users\\DELL\\OneDrive\\Desktop\\final\\Healthcare-DAPP\\contracts\\Doctor.sol",
  "compiler": {
    "name": "solc",
    "version": "0.5.16+commit.9c3226ce.Emscripten.clang"
  },
  "schemaVersion": "3.4.16",
  "updatedAt": "2024-02-09T16:06:10.665Z",
  "devdoc": {
    "methods": {}
  },
  "userdoc": {
    "methods": {}
  }
}