{
  "contractName": "Manager",
  "abi": [
    {
      "constant": true,
      "inputs": [
        {
          "internalType": "uint256",
          "name": "",
          "type": "uint256"
        }
      ],
      "name": "assets",
      "outputs": [
        {
          "internalType": "uint256",
          "name": "id",
          "type": "uint256"
        },
        {
          "internalType": "string",
          "name": "name",
          "type": "string"
        }
      ],
      "payable": false,
      "stateMutability": "view",
      "type": "function"
    },
    {
      "constant": true,
      "inputs": [],
      "name": "nextId",
      "outputs": [
        {
          "internalType": "uint256",
          "name": "",
          "type": "uint256"
        }
      ],
      "payable": false,
      "stateMutability": "view",
      "type": "function"
    },
    {
      "constant": false,
      "inputs": [
        {
          "internalType": "string",
          "name": "name",
          "type": "string"
        }
      ],
      "name": "create",
      "outputs": [],
      "payable": false,
      "stateMutability": "nonpayable",
      "type": "function"
    },
    {
      "constant": true,
      "inputs": [
        {
          "internalType": "uint256",
          "name": "id",
          "type": "uint256"
        }
      ],
      "name": "read",
      "outputs": [
        {
          "internalType": "uint256",
          "name": "",
          "type": "uint256"
        },
        {
          "internalType": "string",
          "name": "",
          "type": "string"
        }
      ],
      "payable": false,
      "stateMutability": "view",
      "type": "function"
    }
  ],
  "bytecode": "0x60806040526001805534801561001457600080fd5b5061066b806100246000396000f3fe608060405234801561001057600080fd5b506004361061004c5760003560e01c806361b8ce8c14610051578063b6a46b3b1461006f578063cf35bdd01461012a578063ed2e5a97146101d8575b600080fd5b610059610286565b6040518082815260200191505060405180910390f35b6101286004803603602081101561008557600080fd5b81019080803590602001906401000000008111156100a257600080fd5b8201836020820111156100b457600080fd5b803590602001918460018302840111640100000000831117156100d657600080fd5b91908080601f016020809104026020016040519081016040528093929190818152602001838380828437600081840152601f19601f82011690508083019250505050505050919291929050505061028c565b005b6101566004803603602081101561014057600080fd5b810190808035906020019092919050505061030f565b6040518083815260200180602001828103825283818151815260200191508051906020019080838360005b8381101561019c578082015181840152602081019050610181565b50505050905090810190601f1680156101c95780820380516001836020036101000a031916815260200191505b50935050505060405180910390f35b610204600480360360208110156101ee57600080fd5b81019080803590602001909291905050506103d8565b6040518083815260200180602001828103825283818151815260200191508051906020019080838360005b8381101561024a57808201518184015260208101905061022f565b50505050905090810190601f1680156102775780820380516001836020036101000a031916815260200191505b50935050505060405180910390f35b60015481565b60006040518060400160405280600154815260200183815250908060018154018082558091505090600182039060005260206000209060020201600090919290919091506000820151816000015560208201518160010190805190602001906102f6929190610591565b5050505060016000815480929190600101919050555050565b6000818154811061031c57fe5b9060005260206000209060020201600091509050806000015490806001018054600181600116156101000203166002900480601f0160208091040260200160405190810160405280929190818152602001828054600181600116156101000203166002900480156103ce5780601f106103a3576101008083540402835291602001916103ce565b820191906000526020600020905b8154815290600101906020018083116103b157829003601f168201915b5050505050905082565b6000606060006103e7846104cc565b9050600081815481106103f657fe5b9060005260206000209060020201600001546000828154811061041557fe5b9060005260206000209060020201600101808054600181600116156101000203166002900480601f0160208091040260200160405190810160405280929190818152602001828054600181600116156101000203166002900480156104bb5780601f10610490576101008083540402835291602001916104bb565b820191906000526020600020905b81548152906001019060200180831161049e57829003601f168201915b505050505090509250925050915091565b600080600090505b60008054905081101561051d5782600082815481106104ef57fe5b9060005260206000209060020201600001541415610510578091505061058c565b80806001019150506104d4565b506040517f08c379a000000000000000000000000000000000000000000000000000000000815260040180806020018281038252601c8152602001807f6d65646963616c417373657420646f6573206e6f74206578697374210000000081525060200191505060405180910390fd5b919050565b828054600181600116156101000203166002900490600052602060002090601f016020900481019282601f106105d257805160ff1916838001178555610600565b82800160010185558215610600579182015b828111156105ff5782518255916020019190600101906105e4565b5b50905061060d9190610611565b5090565b61063391905b8082111561062f576000816000905550600101610617565b5090565b9056fea265627a7a72315820010746655b779d76586f05ac5a0212d52436af5cedc372fd4b3480c7a8bc225164736f6c63430005100032",
  "source": "pragma solidity ^0.5.16;\r\n\r\ncontract Manager {\r\n  struct medicalAsset {\r\n    uint id;\r\n    string name;\r\n  }\r\n medicalAsset[] public assets;\r\n  uint public nextId = 1;\r\n\r\n  function create(string memory name) public {\r\n    assets.push(medicalAsset(nextId, name));\r\n    nextId++;\r\n  }\r\n\r\n  function read(uint id) view public returns(uint, string memory) {\r\n    uint i = find(id);\r\n    return(assets[i].id,assets[i].name);\r\n  }\r\n\r\n \r\n  function find(uint id) view internal returns(uint) {\r\n    for(uint i = 0; i < assets.length; i++) {\r\n      if(assets[i].id == id) {\r\n        return i;\r\n      }\r\n    }\r\n    revert('medicalAsset does not exist!');\r\n  }\r\n\r\n}\r\n",
  "sourcePath": "C:\\Users\\DELL\\OneDrive\\Desktop\\final\\Healthcare-DAPP\\contracts\\Manager.sol",
  "compiler": {
    "name": "solc",
    "version": "0.5.16+commit.9c3226ce.Emscripten.clang"
  },
  "schemaVersion": "3.4.16",
  "updatedAt": "2024-02-09T16:06:13.907Z",
  "networkType": "ethereum",
  "devdoc": {
    "methods": {}
  },
  "userdoc": {
    "methods": {}
  }
}