{
  "contractName": "Patient",
  "abi": [
    {
      "constant": true,
      "inputs": [],
      "name": "getPatientInfo",
      "outputs": [
        {
          "internalType": "string",
          "name": "",
          "type": "string"
        },
        {
          "internalType": "address",
          "name": "",
          "type": "address"
        },
        {
          "internalType": "string",
          "name": "",
          "type": "string"
        },
        {
          "internalType": "address[]",
          "name": "",
          "type": "address[]"
        },
        {
          "internalType": "address[]",
          "name": "",
          "type": "address[]"
        }
      ],
      "payable": false,
      "stateMutability": "view",
      "type": "function"
    },
    {
      "constant": false,
      "inputs": [
        {
          "internalType": "string",
          "name": "_name",
          "type": "string"
        }
      ],
      "name": "signupPatient",
      "outputs": [],
      "payable": false,
      "stateMutability": "nonpayable",
      "type": "function"
    }
  ],
  "bytecode": "0x608060405234801561001057600080fd5b50610a1d806100206000396000f3fe608060405234801561001057600080fd5b50600436106100365760003560e01c8063326df6641461003b57806339cde3cc146101ed575b600080fd5b6100436102a8565b60405180806020018673ffffffffffffffffffffffffffffffffffffffff1673ffffffffffffffffffffffffffffffffffffffff16815260200180602001806020018060200185810385528a818151815260200191508051906020019080838360005b838110156100c15780820151818401526020810190506100a6565b50505050905090810190601f1680156100ee5780820380516001836020036101000a031916815260200191505b50858103845288818151815260200191508051906020019080838360005b8381101561012757808201518184015260208101905061010c565b50505050905090810190601f1680156101545780820380516001836020036101000a031916815260200191505b50858103835287818151815260200191508051906020019060200280838360005b83811015610190578082015181840152602081019050610175565b50505050905001858103825286818151815260200191508051906020019060200280838360005b838110156101d25780820151818401526020810190506101b7565b50505050905001995050505050505050505060405180910390f35b6102a66004803603602081101561020357600080fd5b810190808035906020019064010000000081111561022057600080fd5b82018360208201111561023257600080fd5b8035906020019184600183028401116401000000008311171561025457600080fd5b91908080601f016020809104026020016040519081016040528093929190818152602001838380828437600081840152601f19601f820116905080830192505050505050509192919290505050610624565b005b6060600060608060603360008060008373ffffffffffffffffffffffffffffffffffffffff1673ffffffffffffffffffffffffffffffffffffffff1681526020019081526020016000209050600073ffffffffffffffffffffffffffffffffffffffff168160010160009054906101000a900473ffffffffffffffffffffffffffffffffffffffff1673ffffffffffffffffffffffffffffffffffffffff161161035157600080fd5b60008060003373ffffffffffffffffffffffffffffffffffffffff1673ffffffffffffffffffffffffffffffffffffffff1681526020019081526020016000209050806000018160010160009054906101000a900473ffffffffffffffffffffffffffffffffffffffff16826002018360030184600401848054600181600116156101000203166002900480601f01602080910402602001604051908101604052809291908181526020018280546001816001161561010002031660029004801561045d5780601f106104325761010080835404028352916020019161045d565b820191906000526020600020905b81548152906001019060200180831161044057829003601f168201915b50505050509450828054600181600116156101000203166002900480601f0160208091040260200160405190810160405280929190818152602001828054600181600116156101000203166002900480156104f95780601f106104ce576101008083540402835291602001916104f9565b820191906000526020600020905b8154815290600101906020018083116104dc57829003601f168201915b505050505092508180548060200260200160405190810160405280929190818152602001828054801561058157602002820191906000526020600020905b8160009054906101000a900473ffffffffffffffffffffffffffffffffffffffff1673ffffffffffffffffffffffffffffffffffffffff1681526020019060010190808311610537575b505050505091508080548060200260200160405190810160405280929190818152602001828054801561060957602002820191906000526020600020905b8160009054906101000a900473ffffffffffffffffffffffffffffffffffffffff1673ffffffffffffffffffffffffffffffffffffffff16815260200190600101908083116105bf575b50505050509050975097509750975097505050509091929394565b60008060003373ffffffffffffffffffffffffffffffffffffffff1673ffffffffffffffffffffffffffffffffffffffff1681526020019081526020016000209050600073ffffffffffffffffffffffffffffffffffffffff168160010160009054906101000a900473ffffffffffffffffffffffffffffffffffffffff1673ffffffffffffffffffffffffffffffffffffffff1611156106c457600080fd5b60606040518060200160405280600081525090506040518060a001604052808481526020013373ffffffffffffffffffffffffffffffffffffffff168152602001828152602001600060405190808252806020026020018201604052801561073b5781602001602082028038833980820191505090505b50815260200160006040519080825280602002602001820160405280156107715781602001602082028038833980820191505090505b508152506000803373ffffffffffffffffffffffffffffffffffffffff1673ffffffffffffffffffffffffffffffffffffffff16815260200190815260200160002060008201518160000190805190602001906107cf929190610876565b5060208201518160010160006101000a81548173ffffffffffffffffffffffffffffffffffffffff021916908373ffffffffffffffffffffffffffffffffffffffff1602179055506040820151816002019080519060200190610833929190610876565b5060608201518160030190805190602001906108509291906108f6565b50608082015181600401908051906020019061086d9291906108f6565b50905050505050565b828054600181600116156101000203166002900490600052602060002090601f016020900481019282601f106108b757805160ff19168380011785556108e5565b828001600101855582156108e5579182015b828111156108e45782518255916020019190600101906108c9565b5b5090506108f29190610980565b5090565b82805482825590600052602060002090810192821561096f579160200282015b8281111561096e5782518260006101000a81548173ffffffffffffffffffffffffffffffffffffffff021916908373ffffffffffffffffffffffffffffffffffffffff16021790555091602001919060010190610916565b5b50905061097c91906109a5565b5090565b6109a291905b8082111561099e576000816000905550600101610986565b5090565b90565b6109e591905b808211156109e157600081816101000a81549073ffffffffffffffffffffffffffffffffffffffff0219169055506001016109ab565b5090565b9056fea265627a7a72315820a2316b326859d5699a522340b54cc03f467fb01286382997431ff8a9fed290a464736f6c63430005100032",
  "source": "pragma solidity ^0.5.16;\r\n\r\ncontract Patient {\r\n    mapping (address => patient) internal patients;\r\n    mapping (address => mapping (address => uint)) internal patientToDoctor;\r\n    \r\n    struct patient {\r\n        string name;\r\n        address id;\r\n        string history;// hashes of file that belong to this user for display purpose\r\n        address[] doctor_list;\r\n        address[] request_list;\r\n    }\r\n    \r\n    modifier checkPatient(address id) {\r\n        patient storage p = patients[id];\r\n        require(p.id > address(0x0));//check if patient exist\r\n        _;\r\n    }\r\n    \r\n    function getPatientInfo() public view checkPatient(msg.sender) returns(string memory,address, string memory, address[] memory, address[] memory) {\r\n        patient storage p = patients[msg.sender];\r\n        return (p.name,p.id, p.history, p.doctor_list, p.request_list);\r\n    }\r\n    \r\n    function signupPatient(string memory _name) public {\r\n        patient storage p = patients[msg.sender];\r\n        require(!(p.id > address(0x0)));\r\n        string memory initial = \"\";\r\n\r\n        patients[msg.sender] = patient({name:_name,id:msg.sender,history:initial,doctor_list:new address[](0),request_list:new address[](0)});\r\n    }\r\n\r\n}",
  "sourcePath": "C:\\Users\\DELL\\OneDrive\\Desktop\\final\\Healthcare-DAPP\\contracts\\Patient.sol",
  "compiler": {
    "name": "solc",
    "version": "0.5.16+commit.9c3226ce.Emscripten.clang"
  },
  "schemaVersion": "3.4.16",
  "updatedAt": "2024-02-09T16:06:10.689Z",
  "devdoc": {
    "methods": {}
  },
  "userdoc": {
    "methods": {}
  }
}